{
  "contracts/ERC20Staking.sol": {
    "ERC20Staking": {
      "abi": [
        {
          "inputs": [
            {
              "internalType": "contract IERC20",
              "name": "_stakingToken",
              "type": "address"
            },
            {
              "internalType": "uint256",
              "name": "_rewardRate",
              "type": "uint256"
            }
          ],
          "stateMutability": "nonpayable",
          "type": "constructor"
        },
        {
          "inputs": [],
          "name": "CannotDepositZero",
          "type": "error"
        },
        {
          "inputs": [],
          "name": "InsufficientAmount",
          "type": "error"
        },
        {
          "inputs": [],
          "name": "NoStakes",
          "type": "error"
        },
        {
          "inputs": [],
          "name": "NotOwner",
          "type": "error"
        },
        {
          "inputs": [],
          "name": "StakingPeriodNotElapsed",
          "type": "error"
        },
        {
          "inputs": [],
          "name": "ZeroAddressDetected",
          "type": "error"
        },
        {
          "anonymous": false,
          "inputs": [
            {
              "indexed": true,
              "internalType": "address",
              "name": "owner",
              "type": "address"
            },
            {
              "indexed": false,
              "internalType": "uint256",
              "name": "amount",
              "type": "uint256"
            }
          ],
          "name": "Deposit",
          "type": "event"
        },
        {
          "anonymous": false,
          "inputs": [
            {
              "indexed": true,
              "internalType": "address",
              "name": "user",
              "type": "address"
            },
            {
              "indexed": true,
              "internalType": "uint256",
              "name": "amount",
              "type": "uint256"
            }
          ],
          "name": "RewardWithdrawn",
          "type": "event"
        },
        {
          "anonymous": false,
          "inputs": [
            {
              "indexed": true,
              "internalType": "address",
              "name": "user",
              "type": "address"
            },
            {
              "indexed": true,
              "internalType": "uint256",
              "name": "amount",
              "type": "uint256"
            },
            {
              "indexed": true,
              "internalType": "uint256",
              "name": "timestamp",
              "type": "uint256"
            }
          ],
          "name": "Staked",
          "type": "event"
        },
        {
          "anonymous": false,
          "inputs": [
            {
              "indexed": true,
              "internalType": "address",
              "name": "user",
              "type": "address"
            },
            {
              "indexed": true,
              "internalType": "uint256",
              "name": "amount",
              "type": "uint256"
            }
          ],
          "name": "WithdrawalSuccessful",
          "type": "event"
        },
        {
          "inputs": [
            {
              "internalType": "address",
              "name": "_user",
              "type": "address"
            }
          ],
          "name": "calculateReward",
          "outputs": [
            {
              "internalType": "uint256",
              "name": "",
              "type": "uint256"
            }
          ],
          "stateMutability": "view",
          "type": "function"
        },
        {
          "inputs": [
            {
              "internalType": "uint256",
              "name": "_amount",
              "type": "uint256"
            }
          ],
          "name": "deposit",
          "outputs": [],
          "stateMutability": "nonpayable",
          "type": "function"
        },
        {
          "inputs": [],
          "name": "getContractBalance",
          "outputs": [
            {
              "internalType": "uint256",
              "name": "",
              "type": "uint256"
            }
          ],
          "stateMutability": "view",
          "type": "function"
        },
        {
          "inputs": [
            {
              "internalType": "address",
              "name": "_user",
              "type": "address"
            }
          ],
          "name": "getStakedAmount",
          "outputs": [
            {
              "internalType": "uint256",
              "name": "",
              "type": "uint256"
            }
          ],
          "stateMutability": "view",
          "type": "function"
        },
        {
          "inputs": [],
          "name": "owner",
          "outputs": [
            {
              "internalType": "address",
              "name": "",
              "type": "address"
            }
          ],
          "stateMutability": "view",
          "type": "function"
        },
        {
          "inputs": [
            {
              "internalType": "uint256",
              "name": "_amount",
              "type": "uint256"
            }
          ],
          "name": "ownerWithdraw",
          "outputs": [],
          "stateMutability": "nonpayable",
          "type": "function"
        },
        {
          "inputs": [],
          "name": "rewardRate",
          "outputs": [
            {
              "internalType": "uint256",
              "name": "",
              "type": "uint256"
            }
          ],
          "stateMutability": "view",
          "type": "function"
        },
        {
          "inputs": [
            {
              "internalType": "uint256",
              "name": "_newRate",
              "type": "uint256"
            }
          ],
          "name": "setRewardRate",
          "outputs": [],
          "stateMutability": "nonpayable",
          "type": "function"
        },
        {
          "inputs": [
            {
              "internalType": "uint256",
              "name": "_amount",
              "type": "uint256"
            },
            {
              "internalType": "uint256",
              "name": "_duration",
              "type": "uint256"
            }
          ],
          "name": "stake",
          "outputs": [],
          "stateMutability": "nonpayable",
          "type": "function"
        },
        {
          "inputs": [],
          "name": "stakingToken",
          "outputs": [
            {
              "internalType": "contract IERC20",
              "name": "",
              "type": "address"
            }
          ],
          "stateMutability": "view",
          "type": "function"
        },
        {
          "inputs": [],
          "name": "withdrawStake",
          "outputs": [],
          "stateMutability": "nonpayable",
          "type": "function"
        }
      ],
      "evm": {
        "bytecode": {
          "linkReferences": {},
          "object": "608060405234801561001057600080fd5b506040516113ad3803806113ad8339818101604052810190610032919061016c565b336000806101000a81548173ffffffffffffffffffffffffffffffffffffffff021916908373ffffffffffffffffffffffffffffffffffffffff16021790555081600160006101000a81548173ffffffffffffffffffffffffffffffffffffffff021916908373ffffffffffffffffffffffffffffffffffffffff1602179055508060028190555050506101ac565b600080fd5b600073ffffffffffffffffffffffffffffffffffffffff82169050919050565b60006100f1826100c6565b9050919050565b6000610103826100e6565b9050919050565b610113816100f8565b811461011e57600080fd5b50565b6000815190506101308161010a565b92915050565b6000819050919050565b61014981610136565b811461015457600080fd5b50565b60008151905061016681610140565b92915050565b60008060408385031215610183576101826100c1565b5b600061019185828601610121565b92505060206101a285828601610157565b9150509250929050565b6111f2806101bb6000396000f3fe608060405234801561001057600080fd5b50600436106100a95760003560e01c80637b0a47ee116100715780637b0a47ee146101525780638da5cb5b146101705780639e447fc61461018e578063b6b55f25146101aa578063bed9d861146101c6578063d82e3962146101d0576100a9565b806333f707d1146100ae5780634da6a556146100ca5780636f9fb98a146100fa57806372f702f3146101185780637b0472f014610136575b600080fd5b6100c860048036038101906100c39190610ccd565b610200565b005b6100e460048036038101906100df9190610d58565b6103a1565b6040516100f19190610d94565b60405180910390f35b6101026103ed565b60405161010f9190610d94565b60405180910390f35b610120610498565b60405161012d9190610e0e565b60405180910390f35b610150600480360381019061014b9190610e29565b6104be565b005b61015a6106c1565b6040516101679190610d94565b60405180910390f35b6101786106c7565b6040516101859190610e78565b60405180910390f35b6101a860048036038101906101a39190610ccd565b6106eb565b005b6101c460048036038101906101bf9190610ccd565b6106fd565b005b6101ce61083c565b005b6101ea60048036038101906101e59190610d58565b610b79565b6040516101f79190610d94565b60405180910390f35b610208610c0b565b80600160009054906101000a900473ffffffffffffffffffffffffffffffffffffffff1673ffffffffffffffffffffffffffffffffffffffff166370a08231306040518263ffffffff1660e01b81526004016102649190610e78565b602060405180830381865afa158015610281573d6000803e3d6000fd5b505050506040513d601f19601f820116820180604052508101906102a59190610ea8565b10156102dd576040517f5945ea5600000000000000000000000000000000000000000000000000000000815260040160405180910390fd5b600160009054906101000a900473ffffffffffffffffffffffffffffffffffffffff1673ffffffffffffffffffffffffffffffffffffffff1663a9059cbb60008054906101000a900473ffffffffffffffffffffffffffffffffffffffff16836040518363ffffffff1660e01b815260040161035a929190610ed5565b6020604051808303816000875af1158015610379573d6000803e3d6000fd5b505050506040513d601f19601f8201168201806040525081019061039d9190610f36565b5050565b6000600360008373ffffffffffffffffffffffffffffffffffffffff1673ffffffffffffffffffffffffffffffffffffffff168152602001908152602001600020600001549050919050565b60006103f7610c0b565b600160009054906101000a900473ffffffffffffffffffffffffffffffffffffffff1673ffffffffffffffffffffffffffffffffffffffff166370a08231306040518263ffffffff1660e01b81526004016104529190610e78565b602060405180830381865afa15801561046f573d6000803e3d6000fd5b505050506040513d601f19601f820116820180604052508101906104939190610ea8565b905090565b600160009054906101000a900473ffffffffffffffffffffffffffffffffffffffff1681565b600073ffffffffffffffffffffffffffffffffffffffff163373ffffffffffffffffffffffffffffffffffffffff1603610524576040517f510fbaea00000000000000000000000000000000000000000000000000000000815260040160405180910390fd5b6000820361055e576040517f61ac6eba00000000000000000000000000000000000000000000000000000000815260040160405180910390fd5b600160009054906101000a900473ffffffffffffffffffffffffffffffffffffffff1673ffffffffffffffffffffffffffffffffffffffff166323b872dd3330856040518463ffffffff1660e01b81526004016105bd93929190610f63565b6020604051808303816000875af11580156105dc573d6000803e3d6000fd5b505050506040513d601f19601f820116820180604052508101906106009190610f36565b5060008190506000600360003373ffffffffffffffffffffffffffffffffffffffff1673ffffffffffffffffffffffffffffffffffffffff16815260200190815260200160002090508381600001600082825461065d9190610fc9565b9250508190555042816001018190555081816002018190555042843373ffffffffffffffffffffffffffffffffffffffff167f1449c6dd7851abc30abf37f57715f492010519147cc2652fbc38202c18a6ee9060405160405180910390a450505050565b60025481565b60008054906101000a900473ffffffffffffffffffffffffffffffffffffffff1681565b6106f3610c0b565b8060028190555050565b610705610c0b565b60008111610748576040517f08c379a000000000000000000000000000000000000000000000000000000000815260040161073f9061105a565b60405180910390fd5b600160009054906101000a900473ffffffffffffffffffffffffffffffffffffffff1673ffffffffffffffffffffffffffffffffffffffff166323b872dd3330846040518463ffffffff1660e01b81526004016107a793929190610f63565b6020604051808303816000875af11580156107c6573d6000803e3d6000fd5b505050506040513d601f19601f820116820180604052508101906107ea9190610f36565b503373ffffffffffffffffffffffffffffffffffffffff167fe1fffcc4923d04b559f4d29a8bfc6cda04eb5b0d3c460751c2402c5c5cc9109c826040516108319190610d94565b60405180910390a250565b600073ffffffffffffffffffffffffffffffffffffffff163373ffffffffffffffffffffffffffffffffffffffff16036108a2576040517f510fbaea00000000000000000000000000000000000000000000000000000000815260040160405180910390fd5b6000600360003373ffffffffffffffffffffffffffffffffffffffff1673ffffffffffffffffffffffffffffffffffffffff168152602001908152602001600020905060008160000154905060006108f933610b79565b905060008203610935576040517fb36e4e6c00000000000000000000000000000000000000000000000000000000815260040160405180910390fd5b826002015483600101546109499190610fc9565b421015610982576040517fff7f54ec00000000000000000000000000000000000000000000000000000000815260040160405180910390fd5b600083600001819055506000836001018190555060008360020181905550600081836109ae9190610fc9565b905080600160009054906101000a900473ffffffffffffffffffffffffffffffffffffffff1673ffffffffffffffffffffffffffffffffffffffff166370a08231306040518263ffffffff1660e01b8152600401610a0c9190610e78565b602060405180830381865afa158015610a29573d6000803e3d6000fd5b505050506040513d601f19601f82011682018060405250810190610a4d9190610ea8565b1015610a8e576040517f08c379a0000000000000000000000000000000000000000000000000000000008152600401610a85906110c6565b60405180910390fd5b600160009054906101000a900473ffffffffffffffffffffffffffffffffffffffff1673ffffffffffffffffffffffffffffffffffffffff1663a9059cbb33836040518363ffffffff1660e01b8152600401610aeb929190610ed5565b6020604051808303816000875af1158015610b0a573d6000803e3d6000fd5b505050506040513d601f19601f82011682018060405250810190610b2e9190610f36565b50803373ffffffffffffffffffffffffffffffffffffffff167ff4f855c53853d0277a9ff688aadbfe4cb795ca1d5af41704b62cb539f89939ec60405160405180910390a350505050565b600080600360008473ffffffffffffffffffffffffffffffffffffffff1673ffffffffffffffffffffffffffffffffffffffff16815260200190815260200160002090506000816001015442610bcf91906110e6565b905060006283d600600254838560000154610bea919061111a565b610bf4919061111a565b610bfe919061118b565b9050809350505050919050565b60008054906101000a900473ffffffffffffffffffffffffffffffffffffffff1673ffffffffffffffffffffffffffffffffffffffff163373ffffffffffffffffffffffffffffffffffffffff1614610c90576040517f30cd747100000000000000000000000000000000000000000000000000000000815260040160405180910390fd5b565b600080fd5b6000819050919050565b610caa81610c97565b8114610cb557600080fd5b50565b600081359050610cc781610ca1565b92915050565b600060208284031215610ce357610ce2610c92565b5b6000610cf184828501610cb8565b91505092915050565b600073ffffffffffffffffffffffffffffffffffffffff82169050919050565b6000610d2582610cfa565b9050919050565b610d3581610d1a565b8114610d4057600080fd5b50565b600081359050610d5281610d2c565b92915050565b600060208284031215610d6e57610d6d610c92565b5b6000610d7c84828501610d43565b91505092915050565b610d8e81610c97565b82525050565b6000602082019050610da96000830184610d85565b92915050565b6000819050919050565b6000610dd4610dcf610dca84610cfa565b610daf565b610cfa565b9050919050565b6000610de682610db9565b9050919050565b6000610df882610ddb565b9050919050565b610e0881610ded565b82525050565b6000602082019050610e236000830184610dff565b92915050565b60008060408385031215610e4057610e3f610c92565b5b6000610e4e85828601610cb8565b9250506020610e5f85828601610cb8565b9150509250929050565b610e7281610d1a565b82525050565b6000602082019050610e8d6000830184610e69565b92915050565b600081519050610ea281610ca1565b92915050565b600060208284031215610ebe57610ebd610c92565b5b6000610ecc84828501610e93565b91505092915050565b6000604082019050610eea6000830185610e69565b610ef76020830184610d85565b9392505050565b60008115159050919050565b610f1381610efe565b8114610f1e57600080fd5b50565b600081519050610f3081610f0a565b92915050565b600060208284031215610f4c57610f4b610c92565b5b6000610f5a84828501610f21565b91505092915050565b6000606082019050610f786000830186610e69565b610f856020830185610e69565b610f926040830184610d85565b949350505050565b7f4e487b7100000000000000000000000000000000000000000000000000000000600052601160045260246000fd5b6000610fd482610c97565b9150610fdf83610c97565b9250828201905080821115610ff757610ff6610f9a565b5b92915050565b600082825260208201905092915050565b7f4d757374206465706f736974206d6f7265207468616e203020746f6b656e7300600082015250565b6000611044601f83610ffd565b915061104f8261100e565b602082019050919050565b6000602082019050818103600083015261107381611037565b9050919050565b7f436f6e74726163742062616c616e636520696e73756666696369656e74000000600082015250565b60006110b0601d83610ffd565b91506110bb8261107a565b602082019050919050565b600060208201905081810360008301526110df816110a3565b9050919050565b60006110f182610c97565b91506110fc83610c97565b925082820390508181111561111457611113610f9a565b5b92915050565b600061112582610c97565b915061113083610c97565b925082820261113e81610c97565b9150828204841483151761115557611154610f9a565b5b5092915050565b7f4e487b7100000000000000000000000000000000000000000000000000000000600052601260045260246000fd5b600061119682610c97565b91506111a183610c97565b9250826111b1576111b061115c565b5b82820490509291505056fea26469706673582212201844b2cf5b08fe61e03a9487774954adc33459b898274f416525d391e47b298664736f6c634300081a0033",
          "opcodes": "PUSH1 0x80 PUSH1 0x40 MSTORE CALLVALUE DUP1 ISZERO PUSH2 0x10 JUMPI PUSH1 0x0 DUP1 REVERT JUMPDEST POP PUSH1 0x40 MLOAD PUSH2 0x13AD CODESIZE SUB DUP1 PUSH2 0x13AD DUP4 CODECOPY DUP2 DUP2 ADD PUSH1 0x40 MSTORE DUP2 ADD SWAP1 PUSH2 0x32 SWAP2 SWAP1 PUSH2 0x16C JUMP JUMPDEST CALLER PUSH1 0x0 DUP1 PUSH2 0x100 EXP DUP2 SLOAD DUP2 PUSH20 0xFFFFFFFFFFFFFFFFFFFFFFFFFFFFFFFFFFFFFFFF MUL NOT AND SWAP1 DUP4 PUSH20 0xFFFFFFFFFFFFFFFFFFFFFFFFFFFFFFFFFFFFFFFF AND MUL OR SWAP1 SSTORE POP DUP2 PUSH1 0x1 PUSH1 0x0 PUSH2 0x100 EXP DUP2 SLOAD DUP2 PUSH20 0xFFFFFFFFFFFFFFFFFFFFFFFFFFFFFFFFFFFFFFFF MUL NOT AND SWAP1 DUP4 PUSH20 0xFFFFFFFFFFFFFFFFFFFFFFFFFFFFFFFFFFFFFFFF AND MUL OR SWAP1 SSTORE POP DUP1 PUSH1 0x2 DUP2 SWAP1 SSTORE POP POP POP PUSH2 0x1AC JUMP JUMPDEST PUSH1 0x0 DUP1 REVERT JUMPDEST PUSH1 0x0 PUSH20 0xFFFFFFFFFFFFFFFFFFFFFFFFFFFFFFFFFFFFFFFF DUP3 AND SWAP1 POP SWAP2 SWAP1 POP JUMP JUMPDEST PUSH1 0x0 PUSH2 0xF1 DUP3 PUSH2 0xC6 JUMP JUMPDEST SWAP1 POP SWAP2 SWAP1 POP JUMP JUMPDEST PUSH1 0x0 PUSH2 0x103 DUP3 PUSH2 0xE6 JUMP JUMPDEST SWAP1 POP SWAP2 SWAP1 POP JUMP JUMPDEST PUSH2 0x113 DUP2 PUSH2 0xF8 JUMP JUMPDEST DUP2 EQ PUSH2 0x11E JUMPI PUSH1 0x0 DUP1 REVERT JUMPDEST POP JUMP JUMPDEST PUSH1 0x0 DUP2 MLOAD SWAP1 POP PUSH2 0x130 DUP2 PUSH2 0x10A JUMP JUMPDEST SWAP3 SWAP2 POP POP JUMP JUMPDEST PUSH1 0x0 DUP2 SWAP1 POP SWAP2 SWAP1 POP JUMP JUMPDEST PUSH2 0x149 DUP2 PUSH2 0x136 JUMP JUMPDEST DUP2 EQ PUSH2 0x154 JUMPI PUSH1 0x0 DUP1 REVERT JUMPDEST POP JUMP JUMPDEST PUSH1 0x0 DUP2 MLOAD SWAP1 POP PUSH2 0x166 DUP2 PUSH2 0x140 JUMP JUMPDEST SWAP3 SWAP2 POP POP JUMP JUMPDEST PUSH1 0x0 DUP1 PUSH1 0x40 DUP4 DUP6 SUB SLT ISZERO PUSH2 0x183 JUMPI PUSH2 0x182 PUSH2 0xC1 JUMP JUMPDEST JUMPDEST PUSH1 0x0 PUSH2 0x191 DUP6 DUP3 DUP7 ADD PUSH2 0x121 JUMP JUMPDEST SWAP3 POP POP PUSH1 0x20 PUSH2 0x1A2 DUP6 DUP3 DUP7 ADD PUSH2 0x157 JUMP JUMPDEST SWAP2 POP POP SWAP3 POP SWAP3 SWAP1 POP JUMP JUMPDEST PUSH2 0x11F2 DUP1 PUSH2 0x1BB PUSH1 0x0 CODECOPY PUSH1 0x0 RETURN INVALID PUSH1 0x80 PUSH1 0x40 MSTORE CALLVALUE DUP1 ISZERO PUSH2 0x10 JUMPI PUSH1 0x0 DUP1 REVERT JUMPDEST POP PUSH1 0x4 CALLDATASIZE LT PUSH2 0xA9 JUMPI PUSH1 0x0 CALLDATALOAD PUSH1 0xE0 SHR DUP1 PUSH4 0x7B0A47EE GT PUSH2 0x71 JUMPI DUP1 PUSH4 0x7B0A47EE EQ PUSH2 0x152 JUMPI DUP1 PUSH4 0x8DA5CB5B EQ PUSH2 0x170 JUMPI DUP1 PUSH4 0x9E447FC6 EQ PUSH2 0x18E JUMPI DUP1 PUSH4 0xB6B55F25 EQ PUSH2 0x1AA JUMPI DUP1 PUSH4 0xBED9D861 EQ PUSH2 0x1C6 JUMPI DUP1 PUSH4 0xD82E3962 EQ PUSH2 0x1D0 JUMPI PUSH2 0xA9 JUMP JUMPDEST DUP1 PUSH4 0x33F707D1 EQ PUSH2 0xAE JUMPI DUP1 PUSH4 0x4DA6A556 EQ PUSH2 0xCA JUMPI DUP1 PUSH4 0x6F9FB98A EQ PUSH2 0xFA JUMPI DUP1 PUSH4 0x72F702F3 EQ PUSH2 0x118 JUMPI DUP1 PUSH4 0x7B0472F0 EQ PUSH2 0x136 JUMPI JUMPDEST PUSH1 0x0 DUP1 REVERT JUMPDEST PUSH2 0xC8 PUSH1 0x4 DUP1 CALLDATASIZE SUB DUP2 ADD SWAP1 PUSH2 0xC3 SWAP2 SWAP1 PUSH2 0xCCD JUMP JUMPDEST PUSH2 0x200 JUMP JUMPDEST STOP JUMPDEST PUSH2 0xE4 PUSH1 0x4 DUP1 CALLDATASIZE SUB DUP2 ADD SWAP1 PUSH2 0xDF SWAP2 SWAP1 PUSH2 0xD58 JUMP JUMPDEST PUSH2 0x3A1 JUMP JUMPDEST PUSH1 0x40 MLOAD PUSH2 0xF1 SWAP2 SWAP1 PUSH2 0xD94 JUMP JUMPDEST PUSH1 0x40 MLOAD DUP1 SWAP2 SUB SWAP1 RETURN JUMPDEST PUSH2 0x102 PUSH2 0x3ED JUMP JUMPDEST PUSH1 0x40 MLOAD PUSH2 0x10F SWAP2 SWAP1 PUSH2 0xD94 JUMP JUMPDEST PUSH1 0x40 MLOAD DUP1 SWAP2 SUB SWAP1 RETURN JUMPDEST PUSH2 0x120 PUSH2 0x498 JUMP JUMPDEST PUSH1 0x40 MLOAD PUSH2 0x12D SWAP2 SWAP1 PUSH2 0xE0E JUMP JUMPDEST PUSH1 0x40 MLOAD DUP1 SWAP2 SUB SWAP1 RETURN JUMPDEST PUSH2 0x150 PUSH1 0x4 DUP1 CALLDATASIZE SUB DUP2 ADD SWAP1 PUSH2 0x14B SWAP2 SWAP1 PUSH2 0xE29 JUMP JUMPDEST PUSH2 0x4BE JUMP JUMPDEST STOP JUMPDEST PUSH2 0x15A PUSH2 0x6C1 JUMP JUMPDEST PUSH1 0x40 MLOAD PUSH2 0x167 SWAP2 SWAP1 PUSH2 0xD94 JUMP JUMPDEST PUSH1 0x40 MLOAD DUP1 SWAP2 SUB SWAP1 RETURN JUMPDEST PUSH2 0x178 PUSH2 0x6C7 JUMP JUMPDEST PUSH1 0x40 MLOAD PUSH2 0x185 SWAP2 SWAP1 PUSH2 0xE78 JUMP JUMPDEST PUSH1 0x40 MLOAD DUP1 SWAP2 SUB SWAP1 RETURN JUMPDEST PUSH2 0x1A8 PUSH1 0x4 DUP1 CALLDATASIZE SUB DUP2 ADD SWAP1 PUSH2 0x1A3 SWAP2 SWAP1 PUSH2 0xCCD JUMP JUMPDEST PUSH2 0x6EB JUMP JUMPDEST STOP JUMPDEST PUSH2 0x1C4 PUSH1 0x4 DUP1 CALLDATASIZE SUB DUP2 ADD SWAP1 PUSH2 0x1BF SWAP2 SWAP1 PUSH2 0xCCD JUMP JUMPDEST PUSH2 0x6FD JUMP JUMPDEST STOP JUMPDEST PUSH2 0x1CE PUSH2 0x83C JUMP JUMPDEST STOP JUMPDEST PUSH2 0x1EA PUSH1 0x4 DUP1 CALLDATASIZE SUB DUP2 ADD SWAP1 PUSH2 0x1E5 SWAP2 SWAP1 PUSH2 0xD58 JUMP JUMPDEST PUSH2 0xB79 JUMP JUMPDEST PUSH1 0x40 MLOAD PUSH2 0x1F7 SWAP2 SWAP1 PUSH2 0xD94 JUMP JUMPDEST PUSH1 0x40 MLOAD DUP1 SWAP2 SUB SWAP1 RETURN JUMPDEST PUSH2 0x208 PUSH2 0xC0B JUMP JUMPDEST DUP1 PUSH1 0x1 PUSH1 0x0 SWAP1 SLOAD SWAP1 PUSH2 0x100 EXP SWAP1 DIV PUSH20 0xFFFFFFFFFFFFFFFFFFFFFFFFFFFFFFFFFFFFFFFF AND PUSH20 0xFFFFFFFFFFFFFFFFFFFFFFFFFFFFFFFFFFFFFFFF AND PUSH4 0x70A08231 ADDRESS PUSH1 0x40 MLOAD DUP3 PUSH4 0xFFFFFFFF AND PUSH1 0xE0 SHL DUP2 MSTORE PUSH1 0x4 ADD PUSH2 0x264 SWAP2 SWAP1 PUSH2 0xE78 JUMP JUMPDEST PUSH1 0x20 PUSH1 0x40 MLOAD DUP1 DUP4 SUB DUP2 DUP7 GAS STATICCALL ISZERO DUP1 ISZERO PUSH2 0x281 JUMPI RETURNDATASIZE PUSH1 0x0 DUP1 RETURNDATACOPY RETURNDATASIZE PUSH1 0x0 REVERT JUMPDEST POP POP POP POP PUSH1 0x40 MLOAD RETURNDATASIZE PUSH1 0x1F NOT PUSH1 0x1F DUP3 ADD AND DUP3 ADD DUP1 PUSH1 0x40 MSTORE POP DUP2 ADD SWAP1 PUSH2 0x2A5 SWAP2 SWAP1 PUSH2 0xEA8 JUMP JUMPDEST LT ISZERO PUSH2 0x2DD JUMPI PUSH1 0x40 MLOAD PUSH32 0x5945EA5600000000000000000000000000000000000000000000000000000000 DUP2 MSTORE PUSH1 0x4 ADD PUSH1 0x40 MLOAD DUP1 SWAP2 SUB SWAP1 REVERT JUMPDEST PUSH1 0x1 PUSH1 0x0 SWAP1 SLOAD SWAP1 PUSH2 0x100 EXP SWAP1 DIV PUSH20 0xFFFFFFFFFFFFFFFFFFFFFFFFFFFFFFFFFFFFFFFF AND PUSH20 0xFFFFFFFFFFFFFFFFFFFFFFFFFFFFFFFFFFFFFFFF AND PUSH4 0xA9059CBB PUSH1 0x0 DUP1 SLOAD SWAP1 PUSH2 0x100 EXP SWAP1 DIV PUSH20 0xFFFFFFFFFFFFFFFFFFFFFFFFFFFFFFFFFFFFFFFF AND DUP4 PUSH1 0x40 MLOAD DUP4 PUSH4 0xFFFFFFFF AND PUSH1 0xE0 SHL DUP2 MSTORE PUSH1 0x4 ADD PUSH2 0x35A SWAP3 SWAP2 SWAP1 PUSH2 0xED5 JUMP JUMPDEST PUSH1 0x20 PUSH1 0x40 MLOAD DUP1 DUP4 SUB DUP2 PUSH1 0x0 DUP8 GAS CALL ISZERO DUP1 ISZERO PUSH2 0x379 JUMPI RETURNDATASIZE PUSH1 0x0 DUP1 RETURNDATACOPY RETURNDATASIZE PUSH1 0x0 REVERT JUMPDEST POP POP POP POP PUSH1 0x40 MLOAD RETURNDATASIZE PUSH1 0x1F NOT PUSH1 0x1F DUP3 ADD AND DUP3 ADD DUP1 PUSH1 0x40 MSTORE POP DUP2 ADD SWAP1 PUSH2 0x39D SWAP2 SWAP1 PUSH2 0xF36 JUMP JUMPDEST POP POP JUMP JUMPDEST PUSH1 0x0 PUSH1 0x3 PUSH1 0x0 DUP4 PUSH20 0xFFFFFFFFFFFFFFFFFFFFFFFFFFFFFFFFFFFFFFFF AND PUSH20 0xFFFFFFFFFFFFFFFFFFFFFFFFFFFFFFFFFFFFFFFF AND DUP2 MSTORE PUSH1 0x20 ADD SWAP1 DUP2 MSTORE PUSH1 0x20 ADD PUSH1 0x0 KECCAK256 PUSH1 0x0 ADD SLOAD SWAP1 POP SWAP2 SWAP1 POP JUMP JUMPDEST PUSH1 0x0 PUSH2 0x3F7 PUSH2 0xC0B JUMP JUMPDEST PUSH1 0x1 PUSH1 0x0 SWAP1 SLOAD SWAP1 PUSH2 0x100 EXP SWAP1 DIV PUSH20 0xFFFFFFFFFFFFFFFFFFFFFFFFFFFFFFFFFFFFFFFF AND PUSH20 0xFFFFFFFFFFFFFFFFFFFFFFFFFFFFFFFFFFFFFFFF AND PUSH4 0x70A08231 ADDRESS PUSH1 0x40 MLOAD DUP3 PUSH4 0xFFFFFFFF AND PUSH1 0xE0 SHL DUP2 MSTORE PUSH1 0x4 ADD PUSH2 0x452 SWAP2 SWAP1 PUSH2 0xE78 JUMP JUMPDEST PUSH1 0x20 PUSH1 0x40 MLOAD DUP1 DUP4 SUB DUP2 DUP7 GAS STATICCALL ISZERO DUP1 ISZERO PUSH2 0x46F JUMPI RETURNDATASIZE PUSH1 0x0 DUP1 RETURNDATACOPY RETURNDATASIZE PUSH1 0x0 REVERT JUMPDEST POP POP POP POP PUSH1 0x40 MLOAD RETURNDATASIZE PUSH1 0x1F NOT PUSH1 0x1F DUP3 ADD AND DUP3 ADD DUP1 PUSH1 0x40 MSTORE POP DUP2 ADD SWAP1 PUSH2 0x493 SWAP2 SWAP1 PUSH2 0xEA8 JUMP JUMPDEST SWAP1 POP SWAP1 JUMP JUMPDEST PUSH1 0x1 PUSH1 0x0 SWAP1 SLOAD SWAP1 PUSH2 0x100 EXP SWAP1 DIV PUSH20 0xFFFFFFFFFFFFFFFFFFFFFFFFFFFFFFFFFFFFFFFF AND DUP2 JUMP JUMPDEST PUSH1 0x0 PUSH20 0xFFFFFFFFFFFFFFFFFFFFFFFFFFFFFFFFFFFFFFFF AND CALLER PUSH20 0xFFFFFFFFFFFFFFFFFFFFFFFFFFFFFFFFFFFFFFFF AND SUB PUSH2 0x524 JUMPI PUSH1 0x40 MLOAD PUSH32 0x510FBAEA00000000000000000000000000000000000000000000000000000000 DUP2 MSTORE PUSH1 0x4 ADD PUSH1 0x40 MLOAD DUP1 SWAP2 SUB SWAP1 REVERT JUMPDEST PUSH1 0x0 DUP3 SUB PUSH2 0x55E JUMPI PUSH1 0x40 MLOAD PUSH32 0x61AC6EBA00000000000000000000000000000000000000000000000000000000 DUP2 MSTORE PUSH1 0x4 ADD PUSH1 0x40 MLOAD DUP1 SWAP2 SUB SWAP1 REVERT JUMPDEST PUSH1 0x1 PUSH1 0x0 SWAP1 SLOAD SWAP1 PUSH2 0x100 EXP SWAP1 DIV PUSH20 0xFFFFFFFFFFFFFFFFFFFFFFFFFFFFFFFFFFFFFFFF AND PUSH20 0xFFFFFFFFFFFFFFFFFFFFFFFFFFFFFFFFFFFFFFFF AND PUSH4 0x23B872DD CALLER ADDRESS DUP6 PUSH1 0x40 MLOAD DUP5 PUSH4 0xFFFFFFFF AND PUSH1 0xE0 SHL DUP2 MSTORE PUSH1 0x4 ADD PUSH2 0x5BD SWAP4 SWAP3 SWAP2 SWAP1 PUSH2 0xF63 JUMP JUMPDEST PUSH1 0x20 PUSH1 0x40 MLOAD DUP1 DUP4 SUB DUP2 PUSH1 0x0 DUP8 GAS CALL ISZERO DUP1 ISZERO PUSH2 0x5DC JUMPI RETURNDATASIZE PUSH1 0x0 DUP1 RETURNDATACOPY RETURNDATASIZE PUSH1 0x0 REVERT JUMPDEST POP POP POP POP PUSH1 0x40 MLOAD RETURNDATASIZE PUSH1 0x1F NOT PUSH1 0x1F DUP3 ADD AND DUP3 ADD DUP1 PUSH1 0x40 MSTORE POP DUP2 ADD SWAP1 PUSH2 0x600 SWAP2 SWAP1 PUSH2 0xF36 JUMP JUMPDEST POP PUSH1 0x0 DUP2 SWAP1 POP PUSH1 0x0 PUSH1 0x3 PUSH1 0x0 CALLER PUSH20 0xFFFFFFFFFFFFFFFFFFFFFFFFFFFFFFFFFFFFFFFF AND PUSH20 0xFFFFFFFFFFFFFFFFFFFFFFFFFFFFFFFFFFFFFFFF AND DUP2 MSTORE PUSH1 0x20 ADD SWAP1 DUP2 MSTORE PUSH1 0x20 ADD PUSH1 0x0 KECCAK256 SWAP1 POP DUP4 DUP2 PUSH1 0x0 ADD PUSH1 0x0 DUP3 DUP3 SLOAD PUSH2 0x65D SWAP2 SWAP1 PUSH2 0xFC9 JUMP JUMPDEST SWAP3 POP POP DUP2 SWAP1 SSTORE POP TIMESTAMP DUP2 PUSH1 0x1 ADD DUP2 SWAP1 SSTORE POP DUP2 DUP2 PUSH1 0x2 ADD DUP2 SWAP1 SSTORE POP TIMESTAMP DUP5 CALLER PUSH20 0xFFFFFFFFFFFFFFFFFFFFFFFFFFFFFFFFFFFFFFFF AND PUSH32 0x1449C6DD7851ABC30ABF37F57715F492010519147CC2652FBC38202C18A6EE90 PUSH1 0x40 MLOAD PUSH1 0x40 MLOAD DUP1 SWAP2 SUB SWAP1 LOG4 POP POP POP POP JUMP JUMPDEST PUSH1 0x2 SLOAD DUP2 JUMP JUMPDEST PUSH1 0x0 DUP1 SLOAD SWAP1 PUSH2 0x100 EXP SWAP1 DIV PUSH20 0xFFFFFFFFFFFFFFFFFFFFFFFFFFFFFFFFFFFFFFFF AND DUP2 JUMP JUMPDEST PUSH2 0x6F3 PUSH2 0xC0B JUMP JUMPDEST DUP1 PUSH1 0x2 DUP2 SWAP1 SSTORE POP POP JUMP JUMPDEST PUSH2 0x705 PUSH2 0xC0B JUMP JUMPDEST PUSH1 0x0 DUP2 GT PUSH2 0x748 JUMPI PUSH1 0x40 MLOAD PUSH32 0x8C379A000000000000000000000000000000000000000000000000000000000 DUP2 MSTORE PUSH1 0x4 ADD PUSH2 0x73F SWAP1 PUSH2 0x105A JUMP JUMPDEST PUSH1 0x40 MLOAD DUP1 SWAP2 SUB SWAP1 REVERT JUMPDEST PUSH1 0x1 PUSH1 0x0 SWAP1 SLOAD SWAP1 PUSH2 0x100 EXP SWAP1 DIV PUSH20 0xFFFFFFFFFFFFFFFFFFFFFFFFFFFFFFFFFFFFFFFF AND PUSH20 0xFFFFFFFFFFFFFFFFFFFFFFFFFFFFFFFFFFFFFFFF AND PUSH4 0x23B872DD CALLER ADDRESS DUP5 PUSH1 0x40 MLOAD DUP5 PUSH4 0xFFFFFFFF AND PUSH1 0xE0 SHL DUP2 MSTORE PUSH1 0x4 ADD PUSH2 0x7A7 SWAP4 SWAP3 SWAP2 SWAP1 PUSH2 0xF63 JUMP JUMPDEST PUSH1 0x20 PUSH1 0x40 MLOAD DUP1 DUP4 SUB DUP2 PUSH1 0x0 DUP8 GAS CALL ISZERO DUP1 ISZERO PUSH2 0x7C6 JUMPI RETURNDATASIZE PUSH1 0x0 DUP1 RETURNDATACOPY RETURNDATASIZE PUSH1 0x0 REVERT JUMPDEST POP POP POP POP PUSH1 0x40 MLOAD RETURNDATASIZE PUSH1 0x1F NOT PUSH1 0x1F DUP3 ADD AND DUP3 ADD DUP1 PUSH1 0x40 MSTORE POP DUP2 ADD SWAP1 PUSH2 0x7EA SWAP2 SWAP1 PUSH2 0xF36 JUMP JUMPDEST POP CALLER PUSH20 0xFFFFFFFFFFFFFFFFFFFFFFFFFFFFFFFFFFFFFFFF AND PUSH32 0xE1FFFCC4923D04B559F4D29A8BFC6CDA04EB5B0D3C460751C2402C5C5CC9109C DUP3 PUSH1 0x40 MLOAD PUSH2 0x831 SWAP2 SWAP1 PUSH2 0xD94 JUMP JUMPDEST PUSH1 0x40 MLOAD DUP1 SWAP2 SUB SWAP1 LOG2 POP JUMP JUMPDEST PUSH1 0x0 PUSH20 0xFFFFFFFFFFFFFFFFFFFFFFFFFFFFFFFFFFFFFFFF AND CALLER PUSH20 0xFFFFFFFFFFFFFFFFFFFFFFFFFFFFFFFFFFFFFFFF AND SUB PUSH2 0x8A2 JUMPI PUSH1 0x40 MLOAD PUSH32 0x510FBAEA00000000000000000000000000000000000000000000000000000000 DUP2 MSTORE PUSH1 0x4 ADD PUSH1 0x40 MLOAD DUP1 SWAP2 SUB SWAP1 REVERT JUMPDEST PUSH1 0x0 PUSH1 0x3 PUSH1 0x0 CALLER PUSH20 0xFFFFFFFFFFFFFFFFFFFFFFFFFFFFFFFFFFFFFFFF AND PUSH20 0xFFFFFFFFFFFFFFFFFFFFFFFFFFFFFFFFFFFFFFFF AND DUP2 MSTORE PUSH1 0x20 ADD SWAP1 DUP2 MSTORE PUSH1 0x20 ADD PUSH1 0x0 KECCAK256 SWAP1 POP PUSH1 0x0 DUP2 PUSH1 0x0 ADD SLOAD SWAP1 POP PUSH1 0x0 PUSH2 0x8F9 CALLER PUSH2 0xB79 JUMP JUMPDEST SWAP1 POP PUSH1 0x0 DUP3 SUB PUSH2 0x935 JUMPI PUSH1 0x40 MLOAD PUSH32 0xB36E4E6C00000000000000000000000000000000000000000000000000000000 DUP2 MSTORE PUSH1 0x4 ADD PUSH1 0x40 MLOAD DUP1 SWAP2 SUB SWAP1 REVERT JUMPDEST DUP3 PUSH1 0x2 ADD SLOAD DUP4 PUSH1 0x1 ADD SLOAD PUSH2 0x949 SWAP2 SWAP1 PUSH2 0xFC9 JUMP JUMPDEST TIMESTAMP LT ISZERO PUSH2 0x982 JUMPI PUSH1 0x40 MLOAD PUSH32 0xFF7F54EC00000000000000000000000000000000000000000000000000000000 DUP2 MSTORE PUSH1 0x4 ADD PUSH1 0x40 MLOAD DUP1 SWAP2 SUB SWAP1 REVERT JUMPDEST PUSH1 0x0 DUP4 PUSH1 0x0 ADD DUP2 SWAP1 SSTORE POP PUSH1 0x0 DUP4 PUSH1 0x1 ADD DUP2 SWAP1 SSTORE POP PUSH1 0x0 DUP4 PUSH1 0x2 ADD DUP2 SWAP1 SSTORE POP PUSH1 0x0 DUP2 DUP4 PUSH2 0x9AE SWAP2 SWAP1 PUSH2 0xFC9 JUMP JUMPDEST SWAP1 POP DUP1 PUSH1 0x1 PUSH1 0x0 SWAP1 SLOAD SWAP1 PUSH2 0x100 EXP SWAP1 DIV PUSH20 0xFFFFFFFFFFFFFFFFFFFFFFFFFFFFFFFFFFFFFFFF AND PUSH20 0xFFFFFFFFFFFFFFFFFFFFFFFFFFFFFFFFFFFFFFFF AND PUSH4 0x70A08231 ADDRESS PUSH1 0x40 MLOAD DUP3 PUSH4 0xFFFFFFFF AND PUSH1 0xE0 SHL DUP2 MSTORE PUSH1 0x4 ADD PUSH2 0xA0C SWAP2 SWAP1 PUSH2 0xE78 JUMP JUMPDEST PUSH1 0x20 PUSH1 0x40 MLOAD DUP1 DUP4 SUB DUP2 DUP7 GAS STATICCALL ISZERO DUP1 ISZERO PUSH2 0xA29 JUMPI RETURNDATASIZE PUSH1 0x0 DUP1 RETURNDATACOPY RETURNDATASIZE PUSH1 0x0 REVERT JUMPDEST POP POP POP POP PUSH1 0x40 MLOAD RETURNDATASIZE PUSH1 0x1F NOT PUSH1 0x1F DUP3 ADD AND DUP3 ADD DUP1 PUSH1 0x40 MSTORE POP DUP2 ADD SWAP1 PUSH2 0xA4D SWAP2 SWAP1 PUSH2 0xEA8 JUMP JUMPDEST LT ISZERO PUSH2 0xA8E JUMPI PUSH1 0x40 MLOAD PUSH32 0x8C379A000000000000000000000000000000000000000000000000000000000 DUP2 MSTORE PUSH1 0x4 ADD PUSH2 0xA85 SWAP1 PUSH2 0x10C6 JUMP JUMPDEST PUSH1 0x40 MLOAD DUP1 SWAP2 SUB SWAP1 REVERT JUMPDEST PUSH1 0x1 PUSH1 0x0 SWAP1 SLOAD SWAP1 PUSH2 0x100 EXP SWAP1 DIV PUSH20 0xFFFFFFFFFFFFFFFFFFFFFFFFFFFFFFFFFFFFFFFF AND PUSH20 0xFFFFFFFFFFFFFFFFFFFFFFFFFFFFFFFFFFFFFFFF AND PUSH4 0xA9059CBB CALLER DUP4 PUSH1 0x40 MLOAD DUP4 PUSH4 0xFFFFFFFF AND PUSH1 0xE0 SHL DUP2 MSTORE PUSH1 0x4 ADD PUSH2 0xAEB SWAP3 SWAP2 SWAP1 PUSH2 0xED5 JUMP JUMPDEST PUSH1 0x20 PUSH1 0x40 MLOAD DUP1 DUP4 SUB DUP2 PUSH1 0x0 DUP8 GAS CALL ISZERO DUP1 ISZERO PUSH2 0xB0A JUMPI RETURNDATASIZE PUSH1 0x0 DUP1 RETURNDATACOPY RETURNDATASIZE PUSH1 0x0 REVERT JUMPDEST POP POP POP POP PUSH1 0x40 MLOAD RETURNDATASIZE PUSH1 0x1F NOT PUSH1 0x1F DUP3 ADD AND DUP3 ADD DUP1 PUSH1 0x40 MSTORE POP DUP2 ADD SWAP1 PUSH2 0xB2E SWAP2 SWAP1 PUSH2 0xF36 JUMP JUMPDEST POP DUP1 CALLER PUSH20 0xFFFFFFFFFFFFFFFFFFFFFFFFFFFFFFFFFFFFFFFF AND PUSH32 0xF4F855C53853D0277A9FF688AADBFE4CB795CA1D5AF41704B62CB539F89939EC PUSH1 0x40 MLOAD PUSH1 0x40 MLOAD DUP1 SWAP2 SUB SWAP1 LOG3 POP POP POP POP JUMP JUMPDEST PUSH1 0x0 DUP1 PUSH1 0x3 PUSH1 0x0 DUP5 PUSH20 0xFFFFFFFFFFFFFFFFFFFFFFFFFFFFFFFFFFFFFFFF AND PUSH20 0xFFFFFFFFFFFFFFFFFFFFFFFFFFFFFFFFFFFFFFFF AND DUP2 MSTORE PUSH1 0x20 ADD SWAP1 DUP2 MSTORE PUSH1 0x20 ADD PUSH1 0x0 KECCAK256 SWAP1 POP PUSH1 0x0 DUP2 PUSH1 0x1 ADD SLOAD TIMESTAMP PUSH2 0xBCF SWAP2 SWAP1 PUSH2 0x10E6 JUMP JUMPDEST SWAP1 POP PUSH1 0x0 PUSH3 0x83D600 PUSH1 0x2 SLOAD DUP4 DUP6 PUSH1 0x0 ADD SLOAD PUSH2 0xBEA SWAP2 SWAP1 PUSH2 0x111A JUMP JUMPDEST PUSH2 0xBF4 SWAP2 SWAP1 PUSH2 0x111A JUMP JUMPDEST PUSH2 0xBFE SWAP2 SWAP1 PUSH2 0x118B JUMP JUMPDEST SWAP1 POP DUP1 SWAP4 POP POP POP POP SWAP2 SWAP1 POP JUMP JUMPDEST PUSH1 0x0 DUP1 SLOAD SWAP1 PUSH2 0x100 EXP SWAP1 DIV PUSH20 0xFFFFFFFFFFFFFFFFFFFFFFFFFFFFFFFFFFFFFFFF AND PUSH20 0xFFFFFFFFFFFFFFFFFFFFFFFFFFFFFFFFFFFFFFFF AND CALLER PUSH20 0xFFFFFFFFFFFFFFFFFFFFFFFFFFFFFFFFFFFFFFFF AND EQ PUSH2 0xC90 JUMPI PUSH1 0x40 MLOAD PUSH32 0x30CD747100000000000000000000000000000000000000000000000000000000 DUP2 MSTORE PUSH1 0x4 ADD PUSH1 0x40 MLOAD DUP1 SWAP2 SUB SWAP1 REVERT JUMPDEST JUMP JUMPDEST PUSH1 0x0 DUP1 REVERT JUMPDEST PUSH1 0x0 DUP2 SWAP1 POP SWAP2 SWAP1 POP JUMP JUMPDEST PUSH2 0xCAA DUP2 PUSH2 0xC97 JUMP JUMPDEST DUP2 EQ PUSH2 0xCB5 JUMPI PUSH1 0x0 DUP1 REVERT JUMPDEST POP JUMP JUMPDEST PUSH1 0x0 DUP2 CALLDATALOAD SWAP1 POP PUSH2 0xCC7 DUP2 PUSH2 0xCA1 JUMP JUMPDEST SWAP3 SWAP2 POP POP JUMP JUMPDEST PUSH1 0x0 PUSH1 0x20 DUP3 DUP5 SUB SLT ISZERO PUSH2 0xCE3 JUMPI PUSH2 0xCE2 PUSH2 0xC92 JUMP JUMPDEST JUMPDEST PUSH1 0x0 PUSH2 0xCF1 DUP5 DUP3 DUP6 ADD PUSH2 0xCB8 JUMP JUMPDEST SWAP2 POP POP SWAP3 SWAP2 POP POP JUMP JUMPDEST PUSH1 0x0 PUSH20 0xFFFFFFFFFFFFFFFFFFFFFFFFFFFFFFFFFFFFFFFF DUP3 AND SWAP1 POP SWAP2 SWAP1 POP JUMP JUMPDEST PUSH1 0x0 PUSH2 0xD25 DUP3 PUSH2 0xCFA JUMP JUMPDEST SWAP1 POP SWAP2 SWAP1 POP JUMP JUMPDEST PUSH2 0xD35 DUP2 PUSH2 0xD1A JUMP JUMPDEST DUP2 EQ PUSH2 0xD40 JUMPI PUSH1 0x0 DUP1 REVERT JUMPDEST POP JUMP JUMPDEST PUSH1 0x0 DUP2 CALLDATALOAD SWAP1 POP PUSH2 0xD52 DUP2 PUSH2 0xD2C JUMP JUMPDEST SWAP3 SWAP2 POP POP JUMP JUMPDEST PUSH1 0x0 PUSH1 0x20 DUP3 DUP5 SUB SLT ISZERO PUSH2 0xD6E JUMPI PUSH2 0xD6D PUSH2 0xC92 JUMP JUMPDEST JUMPDEST PUSH1 0x0 PUSH2 0xD7C DUP5 DUP3 DUP6 ADD PUSH2 0xD43 JUMP JUMPDEST SWAP2 POP POP SWAP3 SWAP2 POP POP JUMP JUMPDEST PUSH2 0xD8E DUP2 PUSH2 0xC97 JUMP JUMPDEST DUP3 MSTORE POP POP JUMP JUMPDEST PUSH1 0x0 PUSH1 0x20 DUP3 ADD SWAP1 POP PUSH2 0xDA9 PUSH1 0x0 DUP4 ADD DUP5 PUSH2 0xD85 JUMP JUMPDEST SWAP3 SWAP2 POP POP JUMP JUMPDEST PUSH1 0x0 DUP2 SWAP1 POP SWAP2 SWAP1 POP JUMP JUMPDEST PUSH1 0x0 PUSH2 0xDD4 PUSH2 0xDCF PUSH2 0xDCA DUP5 PUSH2 0xCFA JUMP JUMPDEST PUSH2 0xDAF JUMP JUMPDEST PUSH2 0xCFA JUMP JUMPDEST SWAP1 POP SWAP2 SWAP1 POP JUMP JUMPDEST PUSH1 0x0 PUSH2 0xDE6 DUP3 PUSH2 0xDB9 JUMP JUMPDEST SWAP1 POP SWAP2 SWAP1 POP JUMP JUMPDEST PUSH1 0x0 PUSH2 0xDF8 DUP3 PUSH2 0xDDB JUMP JUMPDEST SWAP1 POP SWAP2 SWAP1 POP JUMP JUMPDEST PUSH2 0xE08 DUP2 PUSH2 0xDED JUMP JUMPDEST DUP3 MSTORE POP POP JUMP JUMPDEST PUSH1 0x0 PUSH1 0x20 DUP3 ADD SWAP1 POP PUSH2 0xE23 PUSH1 0x0 DUP4 ADD DUP5 PUSH2 0xDFF JUMP JUMPDEST SWAP3 SWAP2 POP POP JUMP JUMPDEST PUSH1 0x0 DUP1 PUSH1 0x40 DUP4 DUP6 SUB SLT ISZERO PUSH2 0xE40 JUMPI PUSH2 0xE3F PUSH2 0xC92 JUMP JUMPDEST JUMPDEST PUSH1 0x0 PUSH2 0xE4E DUP6 DUP3 DUP7 ADD PUSH2 0xCB8 JUMP JUMPDEST SWAP3 POP POP PUSH1 0x20 PUSH2 0xE5F DUP6 DUP3 DUP7 ADD PUSH2 0xCB8 JUMP JUMPDEST SWAP2 POP POP SWAP3 POP SWAP3 SWAP1 POP JUMP JUMPDEST PUSH2 0xE72 DUP2 PUSH2 0xD1A JUMP JUMPDEST DUP3 MSTORE POP POP JUMP JUMPDEST PUSH1 0x0 PUSH1 0x20 DUP3 ADD SWAP1 POP PUSH2 0xE8D PUSH1 0x0 DUP4 ADD DUP5 PUSH2 0xE69 JUMP JUMPDEST SWAP3 SWAP2 POP POP JUMP JUMPDEST PUSH1 0x0 DUP2 MLOAD SWAP1 POP PUSH2 0xEA2 DUP2 PUSH2 0xCA1 JUMP JUMPDEST SWAP3 SWAP2 POP POP JUMP JUMPDEST PUSH1 0x0 PUSH1 0x20 DUP3 DUP5 SUB SLT ISZERO PUSH2 0xEBE JUMPI PUSH2 0xEBD PUSH2 0xC92 JUMP JUMPDEST JUMPDEST PUSH1 0x0 PUSH2 0xECC DUP5 DUP3 DUP6 ADD PUSH2 0xE93 JUMP JUMPDEST SWAP2 POP POP SWAP3 SWAP2 POP POP JUMP JUMPDEST PUSH1 0x0 PUSH1 0x40 DUP3 ADD SWAP1 POP PUSH2 0xEEA PUSH1 0x0 DUP4 ADD DUP6 PUSH2 0xE69 JUMP JUMPDEST PUSH2 0xEF7 PUSH1 0x20 DUP4 ADD DUP5 PUSH2 0xD85 JUMP JUMPDEST SWAP4 SWAP3 POP POP POP JUMP JUMPDEST PUSH1 0x0 DUP2 ISZERO ISZERO SWAP1 POP SWAP2 SWAP1 POP JUMP JUMPDEST PUSH2 0xF13 DUP2 PUSH2 0xEFE JUMP JUMPDEST DUP2 EQ PUSH2 0xF1E JUMPI PUSH1 0x0 DUP1 REVERT JUMPDEST POP JUMP JUMPDEST PUSH1 0x0 DUP2 MLOAD SWAP1 POP PUSH2 0xF30 DUP2 PUSH2 0xF0A JUMP JUMPDEST SWAP3 SWAP2 POP POP JUMP JUMPDEST PUSH1 0x0 PUSH1 0x20 DUP3 DUP5 SUB SLT ISZERO PUSH2 0xF4C JUMPI PUSH2 0xF4B PUSH2 0xC92 JUMP JUMPDEST JUMPDEST PUSH1 0x0 PUSH2 0xF5A DUP5 DUP3 DUP6 ADD PUSH2 0xF21 JUMP JUMPDEST SWAP2 POP POP SWAP3 SWAP2 POP POP JUMP JUMPDEST PUSH1 0x0 PUSH1 0x60 DUP3 ADD SWAP1 POP PUSH2 0xF78 PUSH1 0x0 DUP4 ADD DUP7 PUSH2 0xE69 JUMP JUMPDEST PUSH2 0xF85 PUSH1 0x20 DUP4 ADD DUP6 PUSH2 0xE69 JUMP JUMPDEST PUSH2 0xF92 PUSH1 0x40 DUP4 ADD DUP5 PUSH2 0xD85 JUMP JUMPDEST SWAP5 SWAP4 POP POP POP POP JUMP JUMPDEST PUSH32 0x4E487B7100000000000000000000000000000000000000000000000000000000 PUSH1 0x0 MSTORE PUSH1 0x11 PUSH1 0x4 MSTORE PUSH1 0x24 PUSH1 0x0 REVERT JUMPDEST PUSH1 0x0 PUSH2 0xFD4 DUP3 PUSH2 0xC97 JUMP JUMPDEST SWAP2 POP PUSH2 0xFDF DUP4 PUSH2 0xC97 JUMP JUMPDEST SWAP3 POP DUP3 DUP3 ADD SWAP1 POP DUP1 DUP3 GT ISZERO PUSH2 0xFF7 JUMPI PUSH2 0xFF6 PUSH2 0xF9A JUMP JUMPDEST JUMPDEST SWAP3 SWAP2 POP POP JUMP JUMPDEST PUSH1 0x0 DUP3 DUP3 MSTORE PUSH1 0x20 DUP3 ADD SWAP1 POP SWAP3 SWAP2 POP POP JUMP JUMPDEST PUSH32 0x4D757374206465706F736974206D6F7265207468616E203020746F6B656E7300 PUSH1 0x0 DUP3 ADD MSTORE POP JUMP JUMPDEST PUSH1 0x0 PUSH2 0x1044 PUSH1 0x1F DUP4 PUSH2 0xFFD JUMP JUMPDEST SWAP2 POP PUSH2 0x104F DUP3 PUSH2 0x100E JUMP JUMPDEST PUSH1 0x20 DUP3 ADD SWAP1 POP SWAP2 SWAP1 POP JUMP JUMPDEST PUSH1 0x0 PUSH1 0x20 DUP3 ADD SWAP1 POP DUP2 DUP2 SUB PUSH1 0x0 DUP4 ADD MSTORE PUSH2 0x1073 DUP2 PUSH2 0x1037 JUMP JUMPDEST SWAP1 POP SWAP2 SWAP1 POP JUMP JUMPDEST PUSH32 0x436F6E74726163742062616C616E636520696E73756666696369656E74000000 PUSH1 0x0 DUP3 ADD MSTORE POP JUMP JUMPDEST PUSH1 0x0 PUSH2 0x10B0 PUSH1 0x1D DUP4 PUSH2 0xFFD JUMP JUMPDEST SWAP2 POP PUSH2 0x10BB DUP3 PUSH2 0x107A JUMP JUMPDEST PUSH1 0x20 DUP3 ADD SWAP1 POP SWAP2 SWAP1 POP JUMP JUMPDEST PUSH1 0x0 PUSH1 0x20 DUP3 ADD SWAP1 POP DUP2 DUP2 SUB PUSH1 0x0 DUP4 ADD MSTORE PUSH2 0x10DF DUP2 PUSH2 0x10A3 JUMP JUMPDEST SWAP1 POP SWAP2 SWAP1 POP JUMP JUMPDEST PUSH1 0x0 PUSH2 0x10F1 DUP3 PUSH2 0xC97 JUMP JUMPDEST SWAP2 POP PUSH2 0x10FC DUP4 PUSH2 0xC97 JUMP JUMPDEST SWAP3 POP DUP3 DUP3 SUB SWAP1 POP DUP2 DUP2 GT ISZERO PUSH2 0x1114 JUMPI PUSH2 0x1113 PUSH2 0xF9A JUMP JUMPDEST JUMPDEST SWAP3 SWAP2 POP POP JUMP JUMPDEST PUSH1 0x0 PUSH2 0x1125 DUP3 PUSH2 0xC97 JUMP JUMPDEST SWAP2 POP PUSH2 0x1130 DUP4 PUSH2 0xC97 JUMP JUMPDEST SWAP3 POP DUP3 DUP3 MUL PUSH2 0x113E DUP2 PUSH2 0xC97 JUMP JUMPDEST SWAP2 POP DUP3 DUP3 DIV DUP5 EQ DUP4 ISZERO OR PUSH2 0x1155 JUMPI PUSH2 0x1154 PUSH2 0xF9A JUMP JUMPDEST JUMPDEST POP SWAP3 SWAP2 POP POP JUMP JUMPDEST PUSH32 0x4E487B7100000000000000000000000000000000000000000000000000000000 PUSH1 0x0 MSTORE PUSH1 0x12 PUSH1 0x4 MSTORE PUSH1 0x24 PUSH1 0x0 REVERT JUMPDEST PUSH1 0x0 PUSH2 0x1196 DUP3 PUSH2 0xC97 JUMP JUMPDEST SWAP2 POP PUSH2 0x11A1 DUP4 PUSH2 0xC97 JUMP JUMPDEST SWAP3 POP DUP3 PUSH2 0x11B1 JUMPI PUSH2 0x11B0 PUSH2 0x115C JUMP JUMPDEST JUMPDEST DUP3 DUP3 DIV SWAP1 POP SWAP3 SWAP2 POP POP JUMP INVALID LOG2 PUSH5 0x6970667358 0x22 SLT KECCAK256 XOR PREVRANDAO 0xB2 0xCF JUMPDEST ADDMOD INVALID PUSH2 0xE03A SWAP5 DUP8 PUSH24 0x4954ADC33459B898274F416525D391E47B298664736F6C63 NUMBER STOP ADDMOD BYTE STOP CALLER "
        },
        "methodIdentifiers": {
          "calculateReward(address)": "d82e3962",
          "deposit(uint256)": "b6b55f25",
          "getContractBalance()": "6f9fb98a",
          "getStakedAmount(address)": "4da6a556",
          "owner()": "8da5cb5b",
          "ownerWithdraw(uint256)": "33f707d1",
          "rewardRate()": "7b0a47ee",
          "setRewardRate(uint256)": "9e447fc6",
          "stake(uint256,uint256)": "7b0472f0",
          "stakingToken()": "72f702f3",
          "withdrawStake()": "bed9d861"
        }
      }
    }
  }
}