{
  "_format": "hh-sol-artifact-1",
  "contractName": "ERC20Staking",
  "sourceName": "contracts/ERC20Staking.sol",
  "abi": [
    {
      "inputs": [
        {
          "internalType": "contract IERC20",
          "name": "_stakingToken",
          "type": "address"
        },
        {
          "internalType": "uint256",
          "name": "_rewardRate",
          "type": "uint256"
        }
      ],
      "stateMutability": "nonpayable",
      "type": "constructor"
    },
    {
      "inputs": [],
      "name": "CannotDepositZero",
      "type": "error"
    },
    {
      "inputs": [],
      "name": "InsufficientAmount",
      "type": "error"
    },
    {
      "inputs": [],
      "name": "NoStakes",
      "type": "error"
    },
    {
      "inputs": [],
      "name": "NotOwner",
      "type": "error"
    },
    {
      "inputs": [],
      "name": "StakingPeriodNotElapsed",
      "type": "error"
    },
    {
      "inputs": [],
      "name": "ZeroAddressDetected",
      "type": "error"
    },
    {
      "anonymous": false,
      "inputs": [
        {
          "indexed": true,
          "internalType": "address",
          "name": "owner",
          "type": "address"
        },
        {
          "indexed": false,
          "internalType": "uint256",
          "name": "amount",
          "type": "uint256"
        }
      ],
      "name": "Deposit",
      "type": "event"
    },
    {
      "anonymous": false,
      "inputs": [
        {
          "indexed": true,
          "internalType": "address",
          "name": "user",
          "type": "address"
        },
        {
          "indexed": true,
          "internalType": "uint256",
          "name": "amount",
          "type": "uint256"
        }
      ],
      "name": "RewardWithdrawn",
      "type": "event"
    },
    {
      "anonymous": false,
      "inputs": [
        {
          "indexed": true,
          "internalType": "address",
          "name": "user",
          "type": "address"
        },
        {
          "indexed": true,
          "internalType": "uint256",
          "name": "amount",
          "type": "uint256"
        },
        {
          "indexed": true,
          "internalType": "uint256",
          "name": "timestamp",
          "type": "uint256"
        }
      ],
      "name": "Staked",
      "type": "event"
    },
    {
      "anonymous": false,
      "inputs": [
        {
          "indexed": true,
          "internalType": "address",
          "name": "user",
          "type": "address"
        },
        {
          "indexed": true,
          "internalType": "uint256",
          "name": "amount",
          "type": "uint256"
        }
      ],
      "name": "WithdrawalSuccessful",
      "type": "event"
    },
    {
      "inputs": [
        {
          "internalType": "address",
          "name": "_user",
          "type": "address"
        }
      ],
      "name": "calculateReward",
      "outputs": [
        {
          "internalType": "uint256",
          "name": "",
          "type": "uint256"
        }
      ],
      "stateMutability": "view",
      "type": "function"
    },
    {
      "inputs": [
        {
          "internalType": "uint256",
          "name": "_amount",
          "type": "uint256"
        }
      ],
      "name": "deposit",
      "outputs": [],
      "stateMutability": "nonpayable",
      "type": "function"
    },
    {
      "inputs": [],
      "name": "getContractBalance",
      "outputs": [
        {
          "internalType": "uint256",
          "name": "",
          "type": "uint256"
        }
      ],
      "stateMutability": "view",
      "type": "function"
    },
    {
      "inputs": [
        {
          "internalType": "address",
          "name": "_user",
          "type": "address"
        }
      ],
      "name": "getStakedAmount",
      "outputs": [
        {
          "internalType": "uint256",
          "name": "",
          "type": "uint256"
        }
      ],
      "stateMutability": "view",
      "type": "function"
    },
    {
      "inputs": [],
      "name": "owner",
      "outputs": [
        {
          "internalType": "address",
          "name": "",
          "type": "address"
        }
      ],
      "stateMutability": "view",
      "type": "function"
    },
    {
      "inputs": [
        {
          "internalType": "uint256",
          "name": "_amount",
          "type": "uint256"
        }
      ],
      "name": "ownerWithdraw",
      "outputs": [],
      "stateMutability": "nonpayable",
      "type": "function"
    },
    {
      "inputs": [],
      "name": "rewardRate",
      "outputs": [
        {
          "internalType": "uint256",
          "name": "",
          "type": "uint256"
        }
      ],
      "stateMutability": "view",
      "type": "function"
    },
    {
      "inputs": [
        {
          "internalType": "uint256",
          "name": "_newRate",
          "type": "uint256"
        }
      ],
      "name": "setRewardRate",
      "outputs": [],
      "stateMutability": "nonpayable",
      "type": "function"
    },
    {
      "inputs": [
        {
          "internalType": "uint256",
          "name": "_amount",
          "type": "uint256"
        },
        {
          "internalType": "uint256",
          "name": "_duration",
          "type": "uint256"
        }
      ],
      "name": "stake",
      "outputs": [],
      "stateMutability": "nonpayable",
      "type": "function"
    },
    {
      "inputs": [],
      "name": "stakingToken",
      "outputs": [
        {
          "internalType": "contract IERC20",
          "name": "",
          "type": "address"
        }
      ],
      "stateMutability": "view",
      "type": "function"
    },
    {
      "inputs": [],
      "name": "withdrawStake",
      "outputs": [],
      "stateMutability": "nonpayable",
      "type": "function"
    }
  ],
  "bytecode": "0x608060405234801561001057600080fd5b506040516113ad3803806113ad8339818101604052810190610032919061016c565b336000806101000a81548173ffffffffffffffffffffffffffffffffffffffff021916908373ffffffffffffffffffffffffffffffffffffffff16021790555081600160006101000a81548173ffffffffffffffffffffffffffffffffffffffff021916908373ffffffffffffffffffffffffffffffffffffffff1602179055508060028190555050506101ac565b600080fd5b600073ffffffffffffffffffffffffffffffffffffffff82169050919050565b60006100f1826100c6565b9050919050565b6000610103826100e6565b9050919050565b610113816100f8565b811461011e57600080fd5b50565b6000815190506101308161010a565b92915050565b6000819050919050565b61014981610136565b811461015457600080fd5b50565b60008151905061016681610140565b92915050565b60008060408385031215610183576101826100c1565b5b600061019185828601610121565b92505060206101a285828601610157565b9150509250929050565b6111f2806101bb6000396000f3fe608060405234801561001057600080fd5b50600436106100a95760003560e01c80637b0a47ee116100715780637b0a47ee146101525780638da5cb5b146101705780639e447fc61461018e578063b6b55f25146101aa578063bed9d861146101c6578063d82e3962146101d0576100a9565b806333f707d1146100ae5780634da6a556146100ca5780636f9fb98a146100fa57806372f702f3146101185780637b0472f014610136575b600080fd5b6100c860048036038101906100c39190610ccd565b610200565b005b6100e460048036038101906100df9190610d58565b6103a1565b6040516100f19190610d94565b60405180910390f35b6101026103ed565b60405161010f9190610d94565b60405180910390f35b610120610498565b60405161012d9190610e0e565b60405180910390f35b610150600480360381019061014b9190610e29565b6104be565b005b61015a6106c1565b6040516101679190610d94565b60405180910390f35b6101786106c7565b6040516101859190610e78565b60405180910390f35b6101a860048036038101906101a39190610ccd565b6106eb565b005b6101c460048036038101906101bf9190610ccd565b6106fd565b005b6101ce61083c565b005b6101ea60048036038101906101e59190610d58565b610b79565b6040516101f79190610d94565b60405180910390f35b610208610c0b565b80600160009054906101000a900473ffffffffffffffffffffffffffffffffffffffff1673ffffffffffffffffffffffffffffffffffffffff166370a08231306040518263ffffffff1660e01b81526004016102649190610e78565b602060405180830381865afa158015610281573d6000803e3d6000fd5b505050506040513d601f19601f820116820180604052508101906102a59190610ea8565b10156102dd576040517f5945ea5600000000000000000000000000000000000000000000000000000000815260040160405180910390fd5b600160009054906101000a900473ffffffffffffffffffffffffffffffffffffffff1673ffffffffffffffffffffffffffffffffffffffff1663a9059cbb60008054906101000a900473ffffffffffffffffffffffffffffffffffffffff16836040518363ffffffff1660e01b815260040161035a929190610ed5565b6020604051808303816000875af1158015610379573d6000803e3d6000fd5b505050506040513d601f19601f8201168201806040525081019061039d9190610f36565b5050565b6000600360008373ffffffffffffffffffffffffffffffffffffffff1673ffffffffffffffffffffffffffffffffffffffff168152602001908152602001600020600001549050919050565b60006103f7610c0b565b600160009054906101000a900473ffffffffffffffffffffffffffffffffffffffff1673ffffffffffffffffffffffffffffffffffffffff166370a08231306040518263ffffffff1660e01b81526004016104529190610e78565b602060405180830381865afa15801561046f573d6000803e3d6000fd5b505050506040513d601f19601f820116820180604052508101906104939190610ea8565b905090565b600160009054906101000a900473ffffffffffffffffffffffffffffffffffffffff1681565b600073ffffffffffffffffffffffffffffffffffffffff163373ffffffffffffffffffffffffffffffffffffffff1603610524576040517f510fbaea00000000000000000000000000000000000000000000000000000000815260040160405180910390fd5b6000820361055e576040517f61ac6eba00000000000000000000000000000000000000000000000000000000815260040160405180910390fd5b600160009054906101000a900473ffffffffffffffffffffffffffffffffffffffff1673ffffffffffffffffffffffffffffffffffffffff166323b872dd3330856040518463ffffffff1660e01b81526004016105bd93929190610f63565b6020604051808303816000875af11580156105dc573d6000803e3d6000fd5b505050506040513d601f19601f820116820180604052508101906106009190610f36565b5060008190506000600360003373ffffffffffffffffffffffffffffffffffffffff1673ffffffffffffffffffffffffffffffffffffffff16815260200190815260200160002090508381600001600082825461065d9190610fc9565b9250508190555042816001018190555081816002018190555042843373ffffffffffffffffffffffffffffffffffffffff167f1449c6dd7851abc30abf37f57715f492010519147cc2652fbc38202c18a6ee9060405160405180910390a450505050565b60025481565b60008054906101000a900473ffffffffffffffffffffffffffffffffffffffff1681565b6106f3610c0b565b8060028190555050565b610705610c0b565b60008111610748576040517f08c379a000000000000000000000000000000000000000000000000000000000815260040161073f9061105a565b60405180910390fd5b600160009054906101000a900473ffffffffffffffffffffffffffffffffffffffff1673ffffffffffffffffffffffffffffffffffffffff166323b872dd3330846040518463ffffffff1660e01b81526004016107a793929190610f63565b6020604051808303816000875af11580156107c6573d6000803e3d6000fd5b505050506040513d601f19601f820116820180604052508101906107ea9190610f36565b503373ffffffffffffffffffffffffffffffffffffffff167fe1fffcc4923d04b559f4d29a8bfc6cda04eb5b0d3c460751c2402c5c5cc9109c826040516108319190610d94565b60405180910390a250565b600073ffffffffffffffffffffffffffffffffffffffff163373ffffffffffffffffffffffffffffffffffffffff16036108a2576040517f510fbaea00000000000000000000000000000000000000000000000000000000815260040160405180910390fd5b6000600360003373ffffffffffffffffffffffffffffffffffffffff1673ffffffffffffffffffffffffffffffffffffffff168152602001908152602001600020905060008160000154905060006108f933610b79565b905060008203610935576040517fb36e4e6c00000000000000000000000000000000000000000000000000000000815260040160405180910390fd5b826002015483600101546109499190610fc9565b421015610982576040517fff7f54ec00000000000000000000000000000000000000000000000000000000815260040160405180910390fd5b600083600001819055506000836001018190555060008360020181905550600081836109ae9190610fc9565b905080600160009054906101000a900473ffffffffffffffffffffffffffffffffffffffff1673ffffffffffffffffffffffffffffffffffffffff166370a08231306040518263ffffffff1660e01b8152600401610a0c9190610e78565b602060405180830381865afa158015610a29573d6000803e3d6000fd5b505050506040513d601f19601f82011682018060405250810190610a4d9190610ea8565b1015610a8e576040517f08c379a0000000000000000000000000000000000000000000000000000000008152600401610a85906110c6565b60405180910390fd5b600160009054906101000a900473ffffffffffffffffffffffffffffffffffffffff1673ffffffffffffffffffffffffffffffffffffffff1663a9059cbb33836040518363ffffffff1660e01b8152600401610aeb929190610ed5565b6020604051808303816000875af1158015610b0a573d6000803e3d6000fd5b505050506040513d601f19601f82011682018060405250810190610b2e9190610f36565b50803373ffffffffffffffffffffffffffffffffffffffff167ff4f855c53853d0277a9ff688aadbfe4cb795ca1d5af41704b62cb539f89939ec60405160405180910390a350505050565b600080600360008473ffffffffffffffffffffffffffffffffffffffff1673ffffffffffffffffffffffffffffffffffffffff16815260200190815260200160002090506000816001015442610bcf91906110e6565b905060006283d600600254838560000154610bea919061111a565b610bf4919061111a565b610bfe919061118b565b9050809350505050919050565b60008054906101000a900473ffffffffffffffffffffffffffffffffffffffff1673ffffffffffffffffffffffffffffffffffffffff163373ffffffffffffffffffffffffffffffffffffffff1614610c90576040517f30cd747100000000000000000000000000000000000000000000000000000000815260040160405180910390fd5b565b600080fd5b6000819050919050565b610caa81610c97565b8114610cb557600080fd5b50565b600081359050610cc781610ca1565b92915050565b600060208284031215610ce357610ce2610c92565b5b6000610cf184828501610cb8565b91505092915050565b600073ffffffffffffffffffffffffffffffffffffffff82169050919050565b6000610d2582610cfa565b9050919050565b610d3581610d1a565b8114610d4057600080fd5b50565b600081359050610d5281610d2c565b92915050565b600060208284031215610d6e57610d6d610c92565b5b6000610d7c84828501610d43565b91505092915050565b610d8e81610c97565b82525050565b6000602082019050610da96000830184610d85565b92915050565b6000819050919050565b6000610dd4610dcf610dca84610cfa565b610daf565b610cfa565b9050919050565b6000610de682610db9565b9050919050565b6000610df882610ddb565b9050919050565b610e0881610ded565b82525050565b6000602082019050610e236000830184610dff565b92915050565b60008060408385031215610e4057610e3f610c92565b5b6000610e4e85828601610cb8565b9250506020610e5f85828601610cb8565b9150509250929050565b610e7281610d1a565b82525050565b6000602082019050610e8d6000830184610e69565b92915050565b600081519050610ea281610ca1565b92915050565b600060208284031215610ebe57610ebd610c92565b5b6000610ecc84828501610e93565b91505092915050565b6000604082019050610eea6000830185610e69565b610ef76020830184610d85565b9392505050565b60008115159050919050565b610f1381610efe565b8114610f1e57600080fd5b50565b600081519050610f3081610f0a565b92915050565b600060208284031215610f4c57610f4b610c92565b5b6000610f5a84828501610f21565b91505092915050565b6000606082019050610f786000830186610e69565b610f856020830185610e69565b610f926040830184610d85565b949350505050565b7f4e487b7100000000000000000000000000000000000000000000000000000000600052601160045260246000fd5b6000610fd482610c97565b9150610fdf83610c97565b9250828201905080821115610ff757610ff6610f9a565b5b92915050565b600082825260208201905092915050565b7f4d757374206465706f736974206d6f7265207468616e203020746f6b656e7300600082015250565b6000611044601f83610ffd565b915061104f8261100e565b602082019050919050565b6000602082019050818103600083015261107381611037565b9050919050565b7f436f6e74726163742062616c616e636520696e73756666696369656e74000000600082015250565b60006110b0601d83610ffd565b91506110bb8261107a565b602082019050919050565b600060208201905081810360008301526110df816110a3565b9050919050565b60006110f182610c97565b91506110fc83610c97565b925082820390508181111561111457611113610f9a565b5b92915050565b600061112582610c97565b915061113083610c97565b925082820261113e81610c97565b9150828204841483151761115557611154610f9a565b5b5092915050565b7f4e487b7100000000000000000000000000000000000000000000000000000000600052601260045260246000fd5b600061119682610c97565b91506111a183610c97565b9250826111b1576111b061115c565b5b82820490509291505056fea26469706673582212201844b2cf5b08fe61e03a9487774954adc33459b898274f416525d391e47b298664736f6c634300081a0033",
  "linkReferences": {},
  "deployedLinkReferences": {}
}