{
  "_format": "hh-sol-artifact-1",
  "contractName": "EtherStaking",
  "sourceName": "contracts/EtherStaking.sol",
  "abi": [
    {
      "inputs": [
        {
          "internalType": "uint256",
          "name": "_rewardRate",
          "type": "uint256"
        }
      ],
      "stateMutability": "nonpayable",
      "type": "constructor"
    },
    {
      "inputs": [],
      "name": "CannotDepositZero",
      "type": "error"
    },
    {
      "inputs": [],
      "name": "InsufficientAmount",
      "type": "error"
    },
    {
      "inputs": [],
      "name": "NoStakes",
      "type": "error"
    },
    {
      "inputs": [],
      "name": "NotOwner",
      "type": "error"
    },
    {
      "inputs": [],
      "name": "StakingPeriodNotElapsed",
      "type": "error"
    },
    {
      "inputs": [],
      "name": "ZeroAddressDetected",
      "type": "error"
    },
    {
      "anonymous": false,
      "inputs": [
        {
          "indexed": true,
          "internalType": "address",
          "name": "sender",
          "type": "address"
        },
        {
          "indexed": false,
          "internalType": "uint256",
          "name": "amount",
          "type": "uint256"
        }
      ],
      "name": "Deposit",
      "type": "event"
    },
    {
      "anonymous": false,
      "inputs": [
        {
          "indexed": true,
          "internalType": "address",
          "name": "user",
          "type": "address"
        },
        {
          "indexed": true,
          "internalType": "uint256",
          "name": "amount",
          "type": "uint256"
        }
      ],
      "name": "RewardWithdrawn",
      "type": "event"
    },
    {
      "anonymous": false,
      "inputs": [
        {
          "indexed": true,
          "internalType": "address",
          "name": "user",
          "type": "address"
        },
        {
          "indexed": true,
          "internalType": "uint256",
          "name": "amount",
          "type": "uint256"
        },
        {
          "indexed": true,
          "internalType": "uint256",
          "name": "timestamp",
          "type": "uint256"
        }
      ],
      "name": "Staked",
      "type": "event"
    },
    {
      "anonymous": false,
      "inputs": [
        {
          "indexed": true,
          "internalType": "address",
          "name": "user",
          "type": "address"
        },
        {
          "indexed": true,
          "internalType": "uint256",
          "name": "amount",
          "type": "uint256"
        }
      ],
      "name": "WithdrawalSuccessful",
      "type": "event"
    },
    {
      "inputs": [
        {
          "internalType": "address",
          "name": "_user",
          "type": "address"
        }
      ],
      "name": "calculateReward",
      "outputs": [
        {
          "internalType": "uint256",
          "name": "",
          "type": "uint256"
        }
      ],
      "stateMutability": "view",
      "type": "function"
    },
    {
      "inputs": [],
      "name": "deposit",
      "outputs": [],
      "stateMutability": "payable",
      "type": "function"
    },
    {
      "inputs": [],
      "name": "getContractBalance",
      "outputs": [
        {
          "internalType": "uint256",
          "name": "",
          "type": "uint256"
        }
      ],
      "stateMutability": "view",
      "type": "function"
    },
    {
      "inputs": [
        {
          "internalType": "address",
          "name": "_user",
          "type": "address"
        }
      ],
      "name": "getStakedAmount",
      "outputs": [
        {
          "internalType": "uint256",
          "name": "",
          "type": "uint256"
        }
      ],
      "stateMutability": "view",
      "type": "function"
    },
    {
      "inputs": [],
      "name": "owner",
      "outputs": [
        {
          "internalType": "address",
          "name": "",
          "type": "address"
        }
      ],
      "stateMutability": "view",
      "type": "function"
    },
    {
      "inputs": [
        {
          "internalType": "uint256",
          "name": "_amount",
          "type": "uint256"
        }
      ],
      "name": "ownerWithdraw",
      "outputs": [],
      "stateMutability": "nonpayable",
      "type": "function"
    },
    {
      "inputs": [],
      "name": "rewardRate",
      "outputs": [
        {
          "internalType": "uint256",
          "name": "",
          "type": "uint256"
        }
      ],
      "stateMutability": "view",
      "type": "function"
    },
    {
      "inputs": [
        {
          "internalType": "uint256",
          "name": "_newRate",
          "type": "uint256"
        }
      ],
      "name": "setRewardRate",
      "outputs": [],
      "stateMutability": "nonpayable",
      "type": "function"
    },
    {
      "inputs": [
        {
          "internalType": "uint256",
          "name": "_duration",
          "type": "uint256"
        }
      ],
      "name": "stake",
      "outputs": [],
      "stateMutability": "payable",
      "type": "function"
    },
    {
      "inputs": [],
      "name": "withdrawStake",
      "outputs": [],
      "stateMutability": "nonpayable",
      "type": "function"
    }
  ],
  "bytecode": "0x6080604052348015600f57600080fd5b50604051610ebd380380610ebd8339818101604052810190602f919060b1565b336000806101000a81548173ffffffffffffffffffffffffffffffffffffffff021916908373ffffffffffffffffffffffffffffffffffffffff160217905550806001819055505060d9565b600080fd5b6000819050919050565b6091816080565b8114609b57600080fd5b50565b60008151905060ab81608a565b92915050565b60006020828403121560c45760c3607b565b5b600060d084828501609e565b91505092915050565b610dd5806100e86000396000f3fe6080604052600436106100915760003560e01c80639e447fc6116100595780639e447fc61461017d578063a694fc3a146101a6578063bed9d861146101c2578063d0e30db0146101d9578063d82e3962146101e357610091565b806333f707d1146100965780634da6a556146100bf5780636f9fb98a146100fc5780637b0a47ee146101275780638da5cb5b14610152575b600080fd5b3480156100a257600080fd5b506100bd60048036038101906100b891906109bf565b610220565b005b3480156100cb57600080fd5b506100e660048036038101906100e19190610a4a565b610333565b6040516100f39190610a86565b60405180910390f35b34801561010857600080fd5b5061011161037f565b60405161011e9190610a86565b60405180910390f35b34801561013357600080fd5b5061013c61038f565b6040516101499190610a86565b60405180910390f35b34801561015e57600080fd5b50610167610395565b6040516101749190610ab0565b60405180910390f35b34801561018957600080fd5b506101a4600480360381019061019f91906109bf565b6103b9565b005b6101c060048036038101906101bb91906109bf565b6103cb565b005b3480156101ce57600080fd5b506101d761052a565b005b6101e16107d8565b005b3480156101ef57600080fd5b5061020a60048036038101906102059190610a4a565b61086b565b6040516102179190610a86565b60405180910390f35b6102286108fd565b80471015610262576040517f5945ea5600000000000000000000000000000000000000000000000000000000815260040160405180910390fd5b60008060009054906101000a900473ffffffffffffffffffffffffffffffffffffffff1673ffffffffffffffffffffffffffffffffffffffff16826040516102a990610afc565b60006040518083038185875af1925050503d80600081146102e6576040519150601f19603f3d011682016040523d82523d6000602084013e6102eb565b606091505b505090508061032f576040517f08c379a000000000000000000000000000000000000000000000000000000000815260040161032690610b6e565b60405180910390fd5b5050565b6000600260008373ffffffffffffffffffffffffffffffffffffffff1673ffffffffffffffffffffffffffffffffffffffff168152602001908152602001600020600001549050919050565b60006103896108fd565b47905090565b60015481565b60008054906101000a900473ffffffffffffffffffffffffffffffffffffffff1681565b6103c16108fd565b8060018190555050565b600073ffffffffffffffffffffffffffffffffffffffff163373ffffffffffffffffffffffffffffffffffffffff1603610431576040517f510fbaea00000000000000000000000000000000000000000000000000000000815260040160405180910390fd5b6000340361046b576040517f61ac6eba00000000000000000000000000000000000000000000000000000000815260040160405180910390fd5b60008190506000600260003373ffffffffffffffffffffffffffffffffffffffff1673ffffffffffffffffffffffffffffffffffffffff1681526020019081526020016000209050348160000160008282546104c79190610bbd565b9250508190555042816001018190555081816002018190555042343373ffffffffffffffffffffffffffffffffffffffff167f1449c6dd7851abc30abf37f57715f492010519147cc2652fbc38202c18a6ee9060405160405180910390a4505050565b600073ffffffffffffffffffffffffffffffffffffffff163373ffffffffffffffffffffffffffffffffffffffff1603610590576040517f510fbaea00000000000000000000000000000000000000000000000000000000815260040160405180910390fd5b6000600260003373ffffffffffffffffffffffffffffffffffffffff1673ffffffffffffffffffffffffffffffffffffffff168152602001908152602001600020905060008160000154905060006105e73361086b565b905060008203610623576040517fb36e4e6c00000000000000000000000000000000000000000000000000000000815260040160405180910390fd5b826002015483600101546106379190610bbd565b421015610670576040517fff7f54ec00000000000000000000000000000000000000000000000000000000815260040160405180910390fd5b6000836000018190555060008360010181905550600083600201819055506000818361069c9190610bbd565b9050804710156106e1576040517f08c379a00000000000000000000000000000000000000000000000000000000081526004016106d890610c3d565b60405180910390fd5b60003373ffffffffffffffffffffffffffffffffffffffff168260405161070790610afc565b60006040518083038185875af1925050503d8060008114610744576040519150601f19603f3d011682016040523d82523d6000602084013e610749565b606091505b505090508061078d576040517f08c379a000000000000000000000000000000000000000000000000000000000815260040161078490610b6e565b60405180910390fd5b813373ffffffffffffffffffffffffffffffffffffffff167ff4f855c53853d0277a9ff688aadbfe4cb795ca1d5af41704b62cb539f89939ec60405160405180910390a35050505050565b6000341161081b576040517f08c379a000000000000000000000000000000000000000000000000000000000815260040161081290610ca9565b60405180910390fd5b3373ffffffffffffffffffffffffffffffffffffffff167fe1fffcc4923d04b559f4d29a8bfc6cda04eb5b0d3c460751c2402c5c5cc9109c346040516108619190610a86565b60405180910390a2565b600080600260008473ffffffffffffffffffffffffffffffffffffffff1673ffffffffffffffffffffffffffffffffffffffff168152602001908152602001600020905060008160010154426108c19190610cc9565b905060006283d6006001548385600001546108dc9190610cfd565b6108e69190610cfd565b6108f09190610d6e565b9050809350505050919050565b60008054906101000a900473ffffffffffffffffffffffffffffffffffffffff1673ffffffffffffffffffffffffffffffffffffffff163373ffffffffffffffffffffffffffffffffffffffff1614610982576040517f30cd747100000000000000000000000000000000000000000000000000000000815260040160405180910390fd5b565b600080fd5b6000819050919050565b61099c81610989565b81146109a757600080fd5b50565b6000813590506109b981610993565b92915050565b6000602082840312156109d5576109d4610984565b5b60006109e3848285016109aa565b91505092915050565b600073ffffffffffffffffffffffffffffffffffffffff82169050919050565b6000610a17826109ec565b9050919050565b610a2781610a0c565b8114610a3257600080fd5b50565b600081359050610a4481610a1e565b92915050565b600060208284031215610a6057610a5f610984565b5b6000610a6e84828501610a35565b91505092915050565b610a8081610989565b82525050565b6000602082019050610a9b6000830184610a77565b92915050565b610aaa81610a0c565b82525050565b6000602082019050610ac56000830184610aa1565b92915050565b600081905092915050565b50565b6000610ae6600083610acb565b9150610af182610ad6565b600082019050919050565b6000610b0782610ad9565b9150819050919050565b600082825260208201905092915050565b7f4661696c656420746f207472616e736665722045746865720000000000000000600082015250565b6000610b58601883610b11565b9150610b6382610b22565b602082019050919050565b60006020820190508181036000830152610b8781610b4b565b9050919050565b7f4e487b7100000000000000000000000000000000000000000000000000000000600052601160045260246000fd5b6000610bc882610989565b9150610bd383610989565b9250828201905080821115610beb57610bea610b8e565b5b92915050565b7f436f6e74726163742062616c616e636520696e73756666696369656e74000000600082015250565b6000610c27601d83610b11565b9150610c3282610bf1565b602082019050919050565b60006020820190508181036000830152610c5681610c1a565b9050919050565b7f4d757374206465706f736974206d6f7265207468616e20302045746865720000600082015250565b6000610c93601e83610b11565b9150610c9e82610c5d565b602082019050919050565b60006020820190508181036000830152610cc281610c86565b9050919050565b6000610cd482610989565b9150610cdf83610989565b9250828203905081811115610cf757610cf6610b8e565b5b92915050565b6000610d0882610989565b9150610d1383610989565b9250828202610d2181610989565b91508282048414831517610d3857610d37610b8e565b5b5092915050565b7f4e487b7100000000000000000000000000000000000000000000000000000000600052601260045260246000fd5b6000610d7982610989565b9150610d8483610989565b925082610d9457610d93610d3f565b5b82820490509291505056fea2646970667358221220dc0ecabb0083b22b2cb418a09f74a2809d0594a38540d72730c9b033f6b3859664736f6c634300081a0033",
  "linkReferences": {},
  "deployedLinkReferences": {}
}